{
  "_format": "hh-sol-artifact-1",
  "contractName": "GeorgePhotoMinter",
  "sourceName": "contracts/GeorgePhotoMinter.sol",
  "abi": [
    {
      "inputs": [],
      "stateMutability": "nonpayable",
      "type": "constructor"
    },
    {
      "anonymous": false,
      "inputs": [
        {
          "indexed": true,
          "internalType": "address",
          "name": "owner",
          "type": "address"
        },
        {
          "indexed": true,
          "internalType": "address",
          "name": "approved",
          "type": "address"
        },
        {
          "indexed": true,
          "internalType": "uint256",
          "name": "tokenId",
          "type": "uint256"
        }
      ],
      "name": "Approval",
      "type": "event"
    },
    {
      "anonymous": false,
      "inputs": [
        {
          "indexed": true,
          "internalType": "address",
          "name": "owner",
          "type": "address"
        },
        {
          "indexed": true,
          "internalType": "address",
          "name": "operator",
          "type": "address"
        },
        {
          "indexed": false,
          "internalType": "bool",
          "name": "approved",
          "type": "bool"
        }
      ],
      "name": "ApprovalForAll",
      "type": "event"
    },
    {
      "anonymous": false,
      "inputs": [
        {
          "indexed": true,
          "internalType": "address",
          "name": "previousOwner",
          "type": "address"
        },
        {
          "indexed": true,
          "internalType": "address",
          "name": "newOwner",
          "type": "address"
        }
      ],
      "name": "OwnershipTransferred",
      "type": "event"
    },
    {
      "anonymous": false,
      "inputs": [
        {
          "indexed": false,
          "internalType": "address",
          "name": "account",
          "type": "address"
        }
      ],
      "name": "Paused",
      "type": "event"
    },
    {
      "anonymous": false,
      "inputs": [
        {
          "indexed": true,
          "internalType": "address",
          "name": "from",
          "type": "address"
        },
        {
          "indexed": true,
          "internalType": "address",
          "name": "to",
          "type": "address"
        },
        {
          "indexed": true,
          "internalType": "uint256",
          "name": "tokenId",
          "type": "uint256"
        }
      ],
      "name": "Transfer",
      "type": "event"
    },
    {
      "anonymous": false,
      "inputs": [
        {
          "indexed": false,
          "internalType": "address",
          "name": "account",
          "type": "address"
        }
      ],
      "name": "Unpaused",
      "type": "event"
    },
    {
      "inputs": [
        {
          "internalType": "address[]",
          "name": "addresses",
          "type": "address[]"
        }
      ],
      "name": "addToAllowList",
      "outputs": [],
      "stateMutability": "nonpayable",
      "type": "function"
    },
    {
      "inputs": [],
      "name": "allowlistMintEnabled",
      "outputs": [
        {
          "internalType": "bool",
          "name": "",
          "type": "bool"
        }
      ],
      "stateMutability": "view",
      "type": "function"
    },
    {
      "inputs": [
        {
          "internalType": "address",
          "name": "to",
          "type": "address"
        },
        {
          "internalType": "uint256",
          "name": "tokenId",
          "type": "uint256"
        }
      ],
      "name": "approve",
      "outputs": [],
      "stateMutability": "nonpayable",
      "type": "function"
    },
    {
      "inputs": [
        {
          "internalType": "address",
          "name": "player",
          "type": "address"
        },
        {
          "internalType": "string",
          "name": "tokenURI",
          "type": "string"
        }
      ],
      "name": "awardItem",
      "outputs": [
        {
          "internalType": "uint256",
          "name": "",
          "type": "uint256"
        }
      ],
      "stateMutability": "nonpayable",
      "type": "function"
    },
    {
      "inputs": [
        {
          "internalType": "address",
          "name": "player",
          "type": "address"
        },
        {
          "internalType": "string",
          "name": "tokenURI",
          "type": "string"
        }
      ],
      "name": "awardItemAL",
      "outputs": [
        {
          "internalType": "uint256",
          "name": "",
          "type": "uint256"
        }
      ],
      "stateMutability": "nonpayable",
      "type": "function"
    },
    {
      "inputs": [
        {
          "internalType": "address",
          "name": "owner",
          "type": "address"
        }
      ],
      "name": "balanceOf",
      "outputs": [
        {
          "internalType": "uint256",
          "name": "",
          "type": "uint256"
        }
      ],
      "stateMutability": "view",
      "type": "function"
    },
    {
      "inputs": [
        {
          "internalType": "uint256",
          "name": "tokenId",
          "type": "uint256"
        }
      ],
      "name": "getApproved",
      "outputs": [
        {
          "internalType": "address",
          "name": "",
          "type": "address"
        }
      ],
      "stateMutability": "view",
      "type": "function"
    },
    {
      "inputs": [
        {
          "internalType": "address",
          "name": "owner",
          "type": "address"
        },
        {
          "internalType": "address",
          "name": "operator",
          "type": "address"
        }
      ],
      "name": "isApprovedForAll",
      "outputs": [
        {
          "internalType": "bool",
          "name": "",
          "type": "bool"
        }
      ],
      "stateMutability": "view",
      "type": "function"
    },
    {
      "inputs": [],
      "name": "name",
      "outputs": [
        {
          "internalType": "string",
          "name": "",
          "type": "string"
        }
      ],
      "stateMutability": "view",
      "type": "function"
    },
    {
      "inputs": [
        {
          "internalType": "address",
          "name": "addr",
          "type": "address"
        }
      ],
      "name": "onAllowList",
      "outputs": [
        {
          "internalType": "bool",
          "name": "",
          "type": "bool"
        }
      ],
      "stateMutability": "view",
      "type": "function"
    },
    {
      "inputs": [],
      "name": "owner",
      "outputs": [
        {
          "internalType": "address",
          "name": "",
          "type": "address"
        }
      ],
      "stateMutability": "view",
      "type": "function"
    },
    {
      "inputs": [
        {
          "internalType": "uint256",
          "name": "tokenId",
          "type": "uint256"
        }
      ],
      "name": "ownerOf",
      "outputs": [
        {
          "internalType": "address",
          "name": "",
          "type": "address"
        }
      ],
      "stateMutability": "view",
      "type": "function"
    },
    {
      "inputs": [],
      "name": "pause",
      "outputs": [],
      "stateMutability": "nonpayable",
      "type": "function"
    },
    {
      "inputs": [],
      "name": "paused",
      "outputs": [
        {
          "internalType": "bool",
          "name": "",
          "type": "bool"
        }
      ],
      "stateMutability": "view",
      "type": "function"
    },
    {
      "inputs": [],
      "name": "renounceOwnership",
      "outputs": [],
      "stateMutability": "nonpayable",
      "type": "function"
    },
    {
      "inputs": [
        {
          "internalType": "address",
          "name": "from",
          "type": "address"
        },
        {
          "internalType": "address",
          "name": "to",
          "type": "address"
        },
        {
          "internalType": "uint256",
          "name": "tokenId",
          "type": "uint256"
        }
      ],
      "name": "safeTransferFrom",
      "outputs": [],
      "stateMutability": "nonpayable",
      "type": "function"
    },
    {
      "inputs": [
        {
          "internalType": "address",
          "name": "from",
          "type": "address"
        },
        {
          "internalType": "address",
          "name": "to",
          "type": "address"
        },
        {
          "internalType": "uint256",
          "name": "tokenId",
          "type": "uint256"
        },
        {
          "internalType": "bytes",
          "name": "_data",
          "type": "bytes"
        }
      ],
      "name": "safeTransferFrom",
      "outputs": [],
      "stateMutability": "nonpayable",
      "type": "function"
    },
    {
      "inputs": [
        {
          "internalType": "bool",
          "name": "_state",
          "type": "bool"
        }
      ],
      "name": "setAlllowlistMintEnabled",
      "outputs": [],
      "stateMutability": "nonpayable",
      "type": "function"
    },
    {
      "inputs": [
        {
          "internalType": "address",
          "name": "operator",
          "type": "address"
        },
        {
          "internalType": "bool",
          "name": "approved",
          "type": "bool"
        }
      ],
      "name": "setApprovalForAll",
      "outputs": [],
      "stateMutability": "nonpayable",
      "type": "function"
    },
    {
      "inputs": [
        {
          "internalType": "bytes4",
          "name": "interfaceId",
          "type": "bytes4"
        }
      ],
      "name": "supportsInterface",
      "outputs": [
        {
          "internalType": "bool",
          "name": "",
          "type": "bool"
        }
      ],
      "stateMutability": "view",
      "type": "function"
    },
    {
      "inputs": [],
      "name": "symbol",
      "outputs": [
        {
          "internalType": "string",
          "name": "",
          "type": "string"
        }
      ],
      "stateMutability": "view",
      "type": "function"
    },
    {
      "inputs": [
        {
          "internalType": "uint256",
          "name": "tokenId",
          "type": "uint256"
        }
      ],
      "name": "tokenURI",
      "outputs": [
        {
          "internalType": "string",
          "name": "",
          "type": "string"
        }
      ],
      "stateMutability": "view",
      "type": "function"
    },
    {
      "inputs": [
        {
          "internalType": "address",
          "name": "from",
          "type": "address"
        },
        {
          "internalType": "address",
          "name": "to",
          "type": "address"
        },
        {
          "internalType": "uint256",
          "name": "tokenId",
          "type": "uint256"
        }
      ],
      "name": "transferFrom",
      "outputs": [],
      "stateMutability": "nonpayable",
      "type": "function"
    },
    {
      "inputs": [
        {
          "internalType": "address",
          "name": "newOwner",
          "type": "address"
        }
      ],
      "name": "transferOwnership",
      "outputs": [],
      "stateMutability": "nonpayable",
      "type": "function"
    },
    {
      "inputs": [],
      "name": "unpause",
      "outputs": [],
      "stateMutability": "nonpayable",
      "type": "function"
    },
    {
      "inputs": [],
      "name": "withdraw",
      "outputs": [],
      "stateMutability": "nonpayable",
      "type": "function"
    }
  ],
  "bytecode": "0x60806040526001600a60006101000a81548160ff0219169083151502179055503480156200002c57600080fd5b506040518060400160405280600981526020017f47656550686f746f7300000000000000000000000000000000000000000000008152506040518060400160405280600381526020017f50474b00000000000000000000000000000000000000000000000000000000008152508160009080519060200190620000b19291906200038e565b508060019080519060200190620000ca9291906200038e565b505050620000ed620000e16200012660201b60201c565b6200012e60201b60201c565b6000600760146101000a81548160ff021916908315150217905550600160088190555062000120620001f460201b60201c565b620005fa565b600033905090565b6000600760009054906101000a900473ffffffffffffffffffffffffffffffffffffffff16905081600760006101000a81548173ffffffffffffffffffffffffffffffffffffffff021916908373ffffffffffffffffffffffffffffffffffffffff1602179055508173ffffffffffffffffffffffffffffffffffffffff168173ffffffffffffffffffffffffffffffffffffffff167f8be0079c531659141344cd1fd0a4f28419497f9722a3daafe3b4186f6b6457e060405160405180910390a35050565b620002046200012660201b60201c565b73ffffffffffffffffffffffffffffffffffffffff166200022a6200029560201b60201c565b73ffffffffffffffffffffffffffffffffffffffff161462000283576040517f08c379a00000000000000000000000000000000000000000000000000000000081526004016200027a906200049f565b60405180910390fd5b62000293620002bf60201b60201c565b565b6000600760009054906101000a900473ffffffffffffffffffffffffffffffffffffffff16905090565b620002cf6200037760201b60201c565b1562000312576040517f08c379a0000000000000000000000000000000000000000000000000000000008152600401620003099062000511565b60405180910390fd5b6001600760146101000a81548160ff0219169083151502179055507f62e78cea01bee320cd4e420270b5ea74000d11b0c9f74754ebdbfc544b05a2586200035e6200012660201b60201c565b6040516200036d919062000578565b60405180910390a1565b6000600760149054906101000a900460ff16905090565b8280546200039c90620005c4565b90600052602060002090601f016020900481019282620003c057600085556200040c565b82601f10620003db57805160ff19168380011785556200040c565b828001600101855582156200040c579182015b828111156200040b578251825591602001919060010190620003ee565b5b5090506200041b91906200041f565b5090565b5b808211156200043a57600081600090555060010162000420565b5090565b600082825260208201905092915050565b7f4f776e61626c653a2063616c6c6572206973206e6f7420746865206f776e6572600082015250565b6000620004876020836200043e565b915062000494826200044f565b602082019050919050565b60006020820190508181036000830152620004ba8162000478565b9050919050565b7f5061757361626c653a2070617573656400000000000000000000000000000000600082015250565b6000620004f96010836200043e565b91506200050682620004c1565b602082019050919050565b600060208201905081810360008301526200052c81620004ea565b9050919050565b600073ffffffffffffffffffffffffffffffffffffffff82169050919050565b6000620005608262000533565b9050919050565b620005728162000553565b82525050565b60006020820190506200058f600083018462000567565b92915050565b7f4e487b7100000000000000000000000000000000000000000000000000000000600052602260045260246000fd5b60006002820490506001821680620005dd57607f821691505b60208210811415620005f457620005f362000595565b5b50919050565b613ca7806200060a6000396000f3fe608060405234801561001057600080fd5b506004361061018e5760003560e01c8063715018a6116100de578063a22cb46511610097578063cf37834311610071578063cf37834314610435578063e985e9c514610465578063f2fde38b14610495578063fc822921146104b15761018e565b8063a22cb465146103cd578063b88d4fde146103e9578063c87b56dd146104055761018e565b8063715018a6146103435780637263cfe21461034d57806379de186a146103695780638456cb59146103875780638da5cb5b1461039157806395d89b41146103af5761018e565b80633ccfd60b1161014b57806357fac1fd1161012557806357fac1fd146102a95780635c975abb146102c55780636352211e146102e357806370a08231146103135761018e565b80633ccfd60b146102795780633f4ba83a1461028357806342842e0e1461028d5761018e565b806301ffc9a71461019357806306fdde03146101c3578063081812fc146101e1578063095ea7b31461021157806323b872dd1461022d5780633a06589214610249575b600080fd5b6101ad60048036038101906101a8919061253d565b6104e1565b6040516101ba9190612585565b60405180910390f35b6101cb6105c3565b6040516101d89190612639565b60405180910390f35b6101fb60048036038101906101f69190612691565b610655565b60405161020891906126ff565b60405180910390f35b61022b60048036038101906102269190612746565b6106da565b005b61024760048036038101906102429190612786565b6107f2565b005b610263600480360381019061025e91906127d9565b610852565b6040516102709190612585565b60405180910390f35b6102816108a8565b005b61028b6109fa565b005b6102a760048036038101906102a29190612786565b610a80565b005b6102c360048036038101906102be9190612832565b610aa0565b005b6102cd610b39565b6040516102da9190612585565b60405180910390f35b6102fd60048036038101906102f89190612691565b610b50565b60405161030a91906126ff565b60405180910390f35b61032d600480360381019061032891906127d9565b610c02565b60405161033a919061286e565b60405180910390f35b61034b610cba565b005b610367600480360381019061036291906128ee565b610d42565b005b610371610efa565b60405161037e9190612585565b60405180910390f35b61038f610f0d565b005b610399610f93565b6040516103a691906126ff565b60405180910390f35b6103b7610fbd565b6040516103c49190612639565b60405180910390f35b6103e760048036038101906103e2919061293b565b61104f565b005b61040360048036038101906103fe9190612aab565b611065565b005b61041f600480360381019061041a9190612691565b6110c7565b60405161042c9190612639565b60405180910390f35b61044f600480360381019061044a9190612bcf565b611219565b60405161045c919061286e565b60405180910390f35b61047f600480360381019061047a9190612c2b565b611299565b60405161048c9190612585565b60405180910390f35b6104af60048036038101906104aa91906127d9565b61132d565b005b6104cb60048036038101906104c69190612bcf565b611425565b6040516104d8919061286e565b60405180910390f35b60007f80ac58cd000000000000000000000000000000000000000000000000000000007bffffffffffffffffffffffffffffffffffffffffffffffffffffffff1916827bffffffffffffffffffffffffffffffffffffffffffffffffffffffff191614806105ac57507f5b5e139f000000000000000000000000000000000000000000000000000000007bffffffffffffffffffffffffffffffffffffffffffffffffffffffff1916827bffffffffffffffffffffffffffffffffffffffffffffffffffffffff1916145b806105bc57506105bb82611538565b5b9050919050565b6060600080546105d290612c9a565b80601f01602080910402602001604051908101604052809291908181526020018280546105fe90612c9a565b801561064b5780601f106106205761010080835404028352916020019161064b565b820191906000526020600020905b81548152906001019060200180831161062e57829003601f168201915b5050505050905090565b6000610660826115a2565b61069f576040517f08c379a000000000000000000000000000000000000000000000000000000000815260040161069690612d3e565b60405180910390fd5b6004600083815260200190815260200160002060009054906101000a900473ffffffffffffffffffffffffffffffffffffffff169050919050565b60006106e582610b50565b90508073ffffffffffffffffffffffffffffffffffffffff168373ffffffffffffffffffffffffffffffffffffffff161415610756576040517f08c379a000000000000000000000000000000000000000000000000000000000815260040161074d90612dd0565b60405180910390fd5b8073ffffffffffffffffffffffffffffffffffffffff1661077561160e565b73ffffffffffffffffffffffffffffffffffffffff1614806107a457506107a38161079e61160e565b611299565b5b6107e3576040517f08c379a00000000000000000000000000000000000000000000000000000000081526004016107da90612e62565b60405180910390fd5b6107ed8383611616565b505050565b6108036107fd61160e565b826116cf565b610842576040517f08c379a000000000000000000000000000000000000000000000000000000000815260040161083990612ef4565b60405180910390fd5b61084d8383836117ad565b505050565b6000600b60008373ffffffffffffffffffffffffffffffffffffffff1673ffffffffffffffffffffffffffffffffffffffff16815260200190815260200160002060009054906101000a900460ff169050919050565b6108b061160e565b73ffffffffffffffffffffffffffffffffffffffff166108ce610f93565b73ffffffffffffffffffffffffffffffffffffffff1614610924576040517f08c379a000000000000000000000000000000000000000000000000000000000815260040161091b90612f60565b60405180910390fd5b6002600854141561096a576040517f08c379a000000000000000000000000000000000000000000000000000000000815260040161096190612fcc565b60405180910390fd5b6002600881905550600061097c610f93565b73ffffffffffffffffffffffffffffffffffffffff164760405161099f9061301d565b60006040518083038185875af1925050503d80600081146109dc576040519150601f19603f3d011682016040523d82523d6000602084013e6109e1565b606091505b50509050806109ef57600080fd5b506001600881905550565b610a0261160e565b73ffffffffffffffffffffffffffffffffffffffff16610a20610f93565b73ffffffffffffffffffffffffffffffffffffffff1614610a76576040517f08c379a0000000000000000000000000000000000000000000000000000000008152600401610a6d90612f60565b60405180910390fd5b610a7e611a14565b565b610a9b83838360405180602001604052806000815250611065565b505050565b610aa861160e565b73ffffffffffffffffffffffffffffffffffffffff16610ac6610f93565b73ffffffffffffffffffffffffffffffffffffffff1614610b1c576040517f08c379a0000000000000000000000000000000000000000000000000000000008152600401610b1390612f60565b60405180910390fd5b80600a60006101000a81548160ff02191690831515021790555050565b6000600760149054906101000a900460ff16905090565b6000806002600084815260200190815260200160002060009054906101000a900473ffffffffffffffffffffffffffffffffffffffff169050600073ffffffffffffffffffffffffffffffffffffffff168173ffffffffffffffffffffffffffffffffffffffff161415610bf9576040517f08c379a0000000000000000000000000000000000000000000000000000000008152600401610bf0906130a4565b60405180910390fd5b80915050919050565b60008073ffffffffffffffffffffffffffffffffffffffff168273ffffffffffffffffffffffffffffffffffffffff161415610c73576040517f08c379a0000000000000000000000000000000000000000000000000000000008152600401610c6a90613136565b60405180910390fd5b600360008373ffffffffffffffffffffffffffffffffffffffff1673ffffffffffffffffffffffffffffffffffffffff168152602001908152602001600020549050919050565b610cc261160e565b73ffffffffffffffffffffffffffffffffffffffff16610ce0610f93565b73ffffffffffffffffffffffffffffffffffffffff1614610d36576040517f08c379a0000000000000000000000000000000000000000000000000000000008152600401610d2d90612f60565b60405180910390fd5b610d406000611ab6565b565b610d4a61160e565b73ffffffffffffffffffffffffffffffffffffffff16610d68610f93565b73ffffffffffffffffffffffffffffffffffffffff1614610dbe576040517f08c379a0000000000000000000000000000000000000000000000000000000008152600401610db590612f60565b60405180910390fd5b60005b82829050811015610ef557600073ffffffffffffffffffffffffffffffffffffffff16838383818110610df757610df6613156565b5b9050602002016020810190610e0c91906127d9565b73ffffffffffffffffffffffffffffffffffffffff161415610e63576040517f08c379a0000000000000000000000000000000000000000000000000000000008152600401610e5a906131d1565b60405180910390fd5b6001600b6000858585818110610e7c57610e7b613156565b5b9050602002016020810190610e9191906127d9565b73ffffffffffffffffffffffffffffffffffffffff1673ffffffffffffffffffffffffffffffffffffffff16815260200190815260200160002060006101000a81548160ff0219169083151502179055508080610eed90613220565b915050610dc1565b505050565b600a60009054906101000a900460ff1681565b610f1561160e565b73ffffffffffffffffffffffffffffffffffffffff16610f33610f93565b73ffffffffffffffffffffffffffffffffffffffff1614610f89576040517f08c379a0000000000000000000000000000000000000000000000000000000008152600401610f8090612f60565b60405180910390fd5b610f91611b7c565b565b6000600760009054906101000a900473ffffffffffffffffffffffffffffffffffffffff16905090565b606060018054610fcc90612c9a565b80601f0160208091040260200160405190810160405280929190818152602001828054610ff890612c9a565b80156110455780601f1061101a57610100808354040283529160200191611045565b820191906000526020600020905b81548152906001019060200180831161102857829003601f168201915b5050505050905090565b61106161105a61160e565b8383611c1f565b5050565b61107661107061160e565b836116cf565b6110b5576040517f08c379a00000000000000000000000000000000000000000000000000000000081526004016110ac90612ef4565b60405180910390fd5b6110c184848484611d8c565b50505050565b60606110d2826115a2565b611111576040517f08c379a0000000000000000000000000000000000000000000000000000000008152600401611108906132db565b60405180910390fd5b600060066000848152602001908152602001600020805461113190612c9a565b80601f016020809104026020016040519081016040528092919081815260200182805461115d90612c9a565b80156111aa5780601f1061117f576101008083540402835291602001916111aa565b820191906000526020600020905b81548152906001019060200180831161118d57829003601f168201915b5050505050905060006111bb611de8565b90506000815114156111d1578192505050611214565b6000825111156112065780826040516020016111ee929190613337565b60405160208183030381529060405292505050611214565b61120f84611dff565b925050505b919050565b6000611223610b39565b15611263576040517f08c379a000000000000000000000000000000000000000000000000000000000815260040161125a906133a7565b60405180910390fd5b61126d6009611ea6565b60006112796009611ebc565b90506112858482611eca565b61128f81846120a4565b8091505092915050565b6000600560008473ffffffffffffffffffffffffffffffffffffffff1673ffffffffffffffffffffffffffffffffffffffff16815260200190815260200160002060008373ffffffffffffffffffffffffffffffffffffffff1673ffffffffffffffffffffffffffffffffffffffff16815260200190815260200160002060009054906101000a900460ff16905092915050565b61133561160e565b73ffffffffffffffffffffffffffffffffffffffff16611353610f93565b73ffffffffffffffffffffffffffffffffffffffff16146113a9576040517f08c379a00000000000000000000000000000000000000000000000000000000081526004016113a090612f60565b60405180910390fd5b600073ffffffffffffffffffffffffffffffffffffffff168173ffffffffffffffffffffffffffffffffffffffff161415611419576040517f08c379a000000000000000000000000000000000000000000000000000000000815260040161141090613439565b60405180910390fd5b61142281611ab6565b50565b6000600a60009054906101000a900460ff16611476576040517f08c379a000000000000000000000000000000000000000000000000000000000815260040161146d906134cb565b60405180910390fd5b600b60003373ffffffffffffffffffffffffffffffffffffffff1673ffffffffffffffffffffffffffffffffffffffff16815260200190815260200160002060009054906101000a900460ff16611502576040517f08c379a00000000000000000000000000000000000000000000000000000000081526004016114f990613537565b60405180910390fd5b61150c6009611ea6565b60006115186009611ebc565b90506115248482611eca565b61152e81846120a4565b8091505092915050565b60007f01ffc9a7000000000000000000000000000000000000000000000000000000007bffffffffffffffffffffffffffffffffffffffffffffffffffffffff1916827bffffffffffffffffffffffffffffffffffffffffffffffffffffffff1916149050919050565b60008073ffffffffffffffffffffffffffffffffffffffff166002600084815260200190815260200160002060009054906101000a900473ffffffffffffffffffffffffffffffffffffffff1673ffffffffffffffffffffffffffffffffffffffff1614159050919050565b600033905090565b816004600083815260200190815260200160002060006101000a81548173ffffffffffffffffffffffffffffffffffffffff021916908373ffffffffffffffffffffffffffffffffffffffff160217905550808273ffffffffffffffffffffffffffffffffffffffff1661168983610b50565b73ffffffffffffffffffffffffffffffffffffffff167f8c5be1e5ebec7d5bd14f71427d1e84f3dd0314c0f7b2291e5b200ac8c7c3b92560405160405180910390a45050565b60006116da826115a2565b611719576040517f08c379a0000000000000000000000000000000000000000000000000000000008152600401611710906135c9565b60405180910390fd5b600061172483610b50565b90508073ffffffffffffffffffffffffffffffffffffffff168473ffffffffffffffffffffffffffffffffffffffff16148061176657506117658185611299565b5b806117a457508373ffffffffffffffffffffffffffffffffffffffff1661178c84610655565b73ffffffffffffffffffffffffffffffffffffffff16145b91505092915050565b8273ffffffffffffffffffffffffffffffffffffffff166117cd82610b50565b73ffffffffffffffffffffffffffffffffffffffff1614611823576040517f08c379a000000000000000000000000000000000000000000000000000000000815260040161181a9061365b565b60405180910390fd5b600073ffffffffffffffffffffffffffffffffffffffff168273ffffffffffffffffffffffffffffffffffffffff161415611893576040517f08c379a000000000000000000000000000000000000000000000000000000000815260040161188a906136ed565b60405180910390fd5b61189e838383612118565b6118a9600082611616565b6001600360008573ffffffffffffffffffffffffffffffffffffffff1673ffffffffffffffffffffffffffffffffffffffff16815260200190815260200160002060008282546118f9919061370d565b925050819055506001600360008473ffffffffffffffffffffffffffffffffffffffff1673ffffffffffffffffffffffffffffffffffffffff16815260200190815260200160002060008282546119509190613741565b92505081905550816002600083815260200190815260200160002060006101000a81548173ffffffffffffffffffffffffffffffffffffffff021916908373ffffffffffffffffffffffffffffffffffffffff160217905550808273ffffffffffffffffffffffffffffffffffffffff168473ffffffffffffffffffffffffffffffffffffffff167fddf252ad1be2c89b69c2b068fc378daa952ba7f163c4a11628f55a4df523b3ef60405160405180910390a4611a0f83838361211d565b505050565b611a1c610b39565b611a5b576040517f08c379a0000000000000000000000000000000000000000000000000000000008152600401611a52906137e3565b60405180910390fd5b6000600760146101000a81548160ff0219169083151502179055507f5db9ee0a495bf2e6ff9c91a7834c1ba4fdd244a5e8aa4e537bd38aeae4b073aa611a9f61160e565b604051611aac91906126ff565b60405180910390a1565b6000600760009054906101000a900473ffffffffffffffffffffffffffffffffffffffff16905081600760006101000a81548173ffffffffffffffffffffffffffffffffffffffff021916908373ffffffffffffffffffffffffffffffffffffffff1602179055508173ffffffffffffffffffffffffffffffffffffffff168173ffffffffffffffffffffffffffffffffffffffff167f8be0079c531659141344cd1fd0a4f28419497f9722a3daafe3b4186f6b6457e060405160405180910390a35050565b611b84610b39565b15611bc4576040517f08c379a0000000000000000000000000000000000000000000000000000000008152600401611bbb906133a7565b60405180910390fd5b6001600760146101000a81548160ff0219169083151502179055507f62e78cea01bee320cd4e420270b5ea74000d11b0c9f74754ebdbfc544b05a258611c0861160e565b604051611c1591906126ff565b60405180910390a1565b8173ffffffffffffffffffffffffffffffffffffffff168373ffffffffffffffffffffffffffffffffffffffff161415611c8e576040517f08c379a0000000000000000000000000000000000000000000000000000000008152600401611c859061384f565b60405180910390fd5b80600560008573ffffffffffffffffffffffffffffffffffffffff1673ffffffffffffffffffffffffffffffffffffffff16815260200190815260200160002060008473ffffffffffffffffffffffffffffffffffffffff1673ffffffffffffffffffffffffffffffffffffffff16815260200190815260200160002060006101000a81548160ff0219169083151502179055508173ffffffffffffffffffffffffffffffffffffffff168373ffffffffffffffffffffffffffffffffffffffff167f17307eab39ab6107e8899845ad3d59bd9653f200f220920489ca2b5937696c3183604051611d7f9190612585565b60405180910390a3505050565b611d978484846117ad565b611da384848484612122565b611de2576040517f08c379a0000000000000000000000000000000000000000000000000000000008152600401611dd9906138e1565b60405180910390fd5b50505050565b606060405180602001604052806000815250905090565b6060611e0a826115a2565b611e49576040517f08c379a0000000000000000000000000000000000000000000000000000000008152600401611e4090613973565b60405180910390fd5b6000611e53611de8565b90506000815111611e735760405180602001604052806000815250611e9e565b80611e7d846122aa565b604051602001611e8e929190613337565b6040516020818303038152906040525b915050919050565b6001816000016000828254019250508190555050565b600081600001549050919050565b600073ffffffffffffffffffffffffffffffffffffffff168273ffffffffffffffffffffffffffffffffffffffff161415611f3a576040517f08c379a0000000000000000000000000000000000000000000000000000000008152600401611f31906139df565b60405180910390fd5b611f43816115a2565b15611f83576040517f08c379a0000000000000000000000000000000000000000000000000000000008152600401611f7a90613a4b565b60405180910390fd5b611f8f60008383612118565b6001600360008473ffffffffffffffffffffffffffffffffffffffff1673ffffffffffffffffffffffffffffffffffffffff1681526020019081526020016000206000828254611fdf9190613741565b92505081905550816002600083815260200190815260200160002060006101000a81548173ffffffffffffffffffffffffffffffffffffffff021916908373ffffffffffffffffffffffffffffffffffffffff160217905550808273ffffffffffffffffffffffffffffffffffffffff16600073ffffffffffffffffffffffffffffffffffffffff167fddf252ad1be2c89b69c2b068fc378daa952ba7f163c4a11628f55a4df523b3ef60405160405180910390a46120a06000838361211d565b5050565b6120ad826115a2565b6120ec576040517f08c379a00000000000000000000000000000000000000000000000000000000081526004016120e390613add565b60405180910390fd5b8060066000848152602001908152602001600020908051906020019061211392919061242e565b505050565b505050565b505050565b60006121438473ffffffffffffffffffffffffffffffffffffffff1661240b565b1561229d578373ffffffffffffffffffffffffffffffffffffffff1663150b7a0261216c61160e565b8786866040518563ffffffff1660e01b815260040161218e9493929190613b52565b6020604051808303816000875af19250505080156121ca57506040513d601f19601f820116820180604052508101906121c79190613bb3565b60015b61224d573d80600081146121fa576040519150601f19603f3d011682016040523d82523d6000602084013e6121ff565b606091505b50600081511415612245576040517f08c379a000000000000000000000000000000000000000000000000000000000815260040161223c906138e1565b60405180910390fd5b805181602001fd5b63150b7a0260e01b7bffffffffffffffffffffffffffffffffffffffffffffffffffffffff1916817bffffffffffffffffffffffffffffffffffffffffffffffffffffffff1916149150506122a2565b600190505b949350505050565b606060008214156122f2576040518060400160405280600181526020017f30000000000000000000000000000000000000000000000000000000000000008152509050612406565b600082905060005b6000821461232457808061230d90613220565b915050600a8261231d9190613c0f565b91506122fa565b60008167ffffffffffffffff8111156123405761233f612980565b5b6040519080825280601f01601f1916602001820160405280156123725781602001600182028036833780820191505090505b5090505b600085146123ff5760018261238b919061370d565b9150600a8561239a9190613c40565b60306123a69190613741565b60f81b8183815181106123bc576123bb613156565b5b60200101907effffffffffffffffffffffffffffffffffffffffffffffffffffffffffffff1916908160001a905350600a856123f89190613c0f565b9450612376565b8093505050505b919050565b6000808273ffffffffffffffffffffffffffffffffffffffff163b119050919050565b82805461243a90612c9a565b90600052602060002090601f01602090048101928261245c57600085556124a3565b82601f1061247557805160ff19168380011785556124a3565b828001600101855582156124a3579182015b828111156124a2578251825591602001919060010190612487565b5b5090506124b091906124b4565b5090565b5b808211156124cd5760008160009055506001016124b5565b5090565b6000604051905090565b600080fd5b600080fd5b60007fffffffff0000000000000000000000000000000000000000000000000000000082169050919050565b61251a816124e5565b811461252557600080fd5b50565b60008135905061253781612511565b92915050565b600060208284031215612553576125526124db565b5b600061256184828501612528565b91505092915050565b60008115159050919050565b61257f8161256a565b82525050565b600060208201905061259a6000830184612576565b92915050565b600081519050919050565b600082825260208201905092915050565b60005b838110156125da5780820151818401526020810190506125bf565b838111156125e9576000848401525b50505050565b6000601f19601f8301169050919050565b600061260b826125a0565b61261581856125ab565b93506126258185602086016125bc565b61262e816125ef565b840191505092915050565b600060208201905081810360008301526126538184612600565b905092915050565b6000819050919050565b61266e8161265b565b811461267957600080fd5b50565b60008135905061268b81612665565b92915050565b6000602082840312156126a7576126a66124db565b5b60006126b58482850161267c565b91505092915050565b600073ffffffffffffffffffffffffffffffffffffffff82169050919050565b60006126e9826126be565b9050919050565b6126f9816126de565b82525050565b600060208201905061271460008301846126f0565b92915050565b612723816126de565b811461272e57600080fd5b50565b6000813590506127408161271a565b92915050565b6000806040838503121561275d5761275c6124db565b5b600061276b85828601612731565b925050602061277c8582860161267c565b9150509250929050565b60008060006060848603121561279f5761279e6124db565b5b60006127ad86828701612731565b93505060206127be86828701612731565b92505060406127cf8682870161267c565b9150509250925092565b6000602082840312156127ef576127ee6124db565b5b60006127fd84828501612731565b91505092915050565b61280f8161256a565b811461281a57600080fd5b50565b60008135905061282c81612806565b92915050565b600060208284031215612848576128476124db565b5b60006128568482850161281d565b91505092915050565b6128688161265b565b82525050565b6000602082019050612883600083018461285f565b92915050565b600080fd5b600080fd5b600080fd5b60008083601f8401126128ae576128ad612889565b5b8235905067ffffffffffffffff8111156128cb576128ca61288e565b5b6020830191508360208202830111156128e7576128e6612893565b5b9250929050565b60008060208385031215612905576129046124db565b5b600083013567ffffffffffffffff811115612923576129226124e0565b5b61292f85828601612898565b92509250509250929050565b60008060408385031215612952576129516124db565b5b600061296085828601612731565b92505060206129718582860161281d565b9150509250929050565b600080fd5b7f4e487b7100000000000000000000000000000000000000000000000000000000600052604160045260246000fd5b6129b8826125ef565b810181811067ffffffffffffffff821117156129d7576129d6612980565b5b80604052505050565b60006129ea6124d1565b90506129f682826129af565b919050565b600067ffffffffffffffff821115612a1657612a15612980565b5b612a1f826125ef565b9050602081019050919050565b82818337600083830152505050565b6000612a4e612a49846129fb565b6129e0565b905082815260208101848484011115612a6a57612a6961297b565b5b612a75848285612a2c565b509392505050565b600082601f830112612a9257612a91612889565b5b8135612aa2848260208601612a3b565b91505092915050565b60008060008060808587031215612ac557612ac46124db565b5b6000612ad387828801612731565b9450506020612ae487828801612731565b9350506040612af58782880161267c565b925050606085013567ffffffffffffffff811115612b1657612b156124e0565b5b612b2287828801612a7d565b91505092959194509250565b600067ffffffffffffffff821115612b4957612b48612980565b5b612b52826125ef565b9050602081019050919050565b6000612b72612b6d84612b2e565b6129e0565b905082815260208101848484011115612b8e57612b8d61297b565b5b612b99848285612a2c565b509392505050565b600082601f830112612bb657612bb5612889565b5b8135612bc6848260208601612b5f565b91505092915050565b60008060408385031215612be657612be56124db565b5b6000612bf485828601612731565b925050602083013567ffffffffffffffff811115612c1557612c146124e0565b5b612c2185828601612ba1565b9150509250929050565b60008060408385031215612c4257612c416124db565b5b6000612c5085828601612731565b9250506020612c6185828601612731565b9150509250929050565b7f4e487b7100000000000000000000000000000000000000000000000000000000600052602260045260246000fd5b60006002820490506001821680612cb257607f821691505b60208210811415612cc657612cc5612c6b565b5b50919050565b7f4552433732313a20617070726f76656420717565727920666f72206e6f6e657860008201527f697374656e7420746f6b656e0000000000000000000000000000000000000000602082015250565b6000612d28602c836125ab565b9150612d3382612ccc565b604082019050919050565b60006020820190508181036000830152612d5781612d1b565b9050919050565b7f4552433732313a20617070726f76616c20746f2063757272656e74206f776e6560008201527f7200000000000000000000000000000000000000000000000000000000000000602082015250565b6000612dba6021836125ab565b9150612dc582612d5e565b604082019050919050565b60006020820190508181036000830152612de981612dad565b9050919050565b7f4552433732313a20617070726f76652063616c6c6572206973206e6f74206f7760008201527f6e6572206e6f7220617070726f76656420666f7220616c6c0000000000000000602082015250565b6000612e4c6038836125ab565b9150612e5782612df0565b604082019050919050565b60006020820190508181036000830152612e7b81612e3f565b9050919050565b7f4552433732313a207472616e736665722063616c6c6572206973206e6f74206f60008201527f776e6572206e6f7220617070726f766564000000000000000000000000000000602082015250565b6000612ede6031836125ab565b9150612ee982612e82565b604082019050919050565b60006020820190508181036000830152612f0d81612ed1565b9050919050565b7f4f776e61626c653a2063616c6c6572206973206e6f7420746865206f776e6572600082015250565b6000612f4a6020836125ab565b9150612f5582612f14565b602082019050919050565b60006020820190508181036000830152612f7981612f3d565b9050919050565b7f5265656e7472616e637947756172643a207265656e7472616e742063616c6c00600082015250565b6000612fb6601f836125ab565b9150612fc182612f80565b602082019050919050565b60006020820190508181036000830152612fe581612fa9565b9050919050565b600081905092915050565b50565b6000613007600083612fec565b915061301282612ff7565b600082019050919050565b600061302882612ffa565b9150819050919050565b7f4552433732313a206f776e657220717565727920666f72206e6f6e657869737460008201527f656e7420746f6b656e0000000000000000000000000000000000000000000000602082015250565b600061308e6029836125ab565b915061309982613032565b604082019050919050565b600060208201905081810360008301526130bd81613081565b9050919050565b7f4552433732313a2062616c616e636520717565727920666f7220746865207a6560008201527f726f206164647265737300000000000000000000000000000000000000000000602082015250565b6000613120602a836125ab565b915061312b826130c4565b604082019050919050565b6000602082019050818103600083015261314f81613113565b9050919050565b7f4e487b7100000000000000000000000000000000000000000000000000000000600052603260045260246000fd5b7f43616e27742061646420746865206e756c6c2061646472657373000000000000600082015250565b60006131bb601a836125ab565b91506131c682613185565b602082019050919050565b600060208201905081810360008301526131ea816131ae565b9050919050565b7f4e487b7100000000000000000000000000000000000000000000000000000000600052601160045260246000fd5b600061322b8261265b565b91507fffffffffffffffffffffffffffffffffffffffffffffffffffffffffffffffff82141561325e5761325d6131f1565b5b600182019050919050565b7f45524337323155524953746f726167653a2055524920717565727920666f722060008201527f6e6f6e6578697374656e7420746f6b656e000000000000000000000000000000602082015250565b60006132c56031836125ab565b91506132d082613269565b604082019050919050565b600060208201905081810360008301526132f4816132b8565b9050919050565b600081905092915050565b6000613311826125a0565b61331b81856132fb565b935061332b8185602086016125bc565b80840191505092915050565b60006133438285613306565b915061334f8284613306565b91508190509392505050565b7f5061757361626c653a2070617573656400000000000000000000000000000000600082015250565b60006133916010836125ab565b915061339c8261335b565b602082019050919050565b600060208201905081810360008301526133c081613384565b9050919050565b7f4f776e61626c653a206e6577206f776e657220697320746865207a65726f206160008201527f6464726573730000000000000000000000000000000000000000000000000000602082015250565b60006134236026836125ab565b915061342e826133c7565b604082019050919050565b6000602082019050818103600083015261345281613416565b9050919050565b7f4569746865722074686520636f6e747261637420697320706175736564206f7260008201527f20796f7520617265206e6f74206f6e2074686520416c6c6f77204c6973742100602082015250565b60006134b5603f836125ab565b91506134c082613459565b604082019050919050565b600060208201905081810360008301526134e4816134a8565b9050919050565b7f596f7520617265206e6f74206f6e2074686520416c6c6f77204c6973742e0000600082015250565b6000613521601e836125ab565b915061352c826134eb565b602082019050919050565b6000602082019050818103600083015261355081613514565b9050919050565b7f4552433732313a206f70657261746f7220717565727920666f72206e6f6e657860008201527f697374656e7420746f6b656e0000000000000000000000000000000000000000602082015250565b60006135b3602c836125ab565b91506135be82613557565b604082019050919050565b600060208201905081810360008301526135e2816135a6565b9050919050565b7f4552433732313a207472616e736665722066726f6d20696e636f72726563742060008201527f6f776e6572000000000000000000000000000000000000000000000000000000602082015250565b60006136456025836125ab565b9150613650826135e9565b604082019050919050565b6000602082019050818103600083015261367481613638565b9050919050565b7f4552433732313a207472616e7366657220746f20746865207a65726f2061646460008201527f7265737300000000000000000000000000000000000000000000000000000000602082015250565b60006136d76024836125ab565b91506136e28261367b565b604082019050919050565b60006020820190508181036000830152613706816136ca565b9050919050565b60006137188261265b565b91506137238361265b565b925082821015613736576137356131f1565b5b828203905092915050565b600061374c8261265b565b91506137578361265b565b9250827fffffffffffffffffffffffffffffffffffffffffffffffffffffffffffffffff0382111561378c5761378b6131f1565b5b828201905092915050565b7f5061757361626c653a206e6f7420706175736564000000000000000000000000600082015250565b60006137cd6014836125ab565b91506137d882613797565b602082019050919050565b600060208201905081810360008301526137fc816137c0565b9050919050565b7f4552433732313a20617070726f766520746f2063616c6c657200000000000000600082015250565b60006138396019836125ab565b915061384482613803565b602082019050919050565b600060208201905081810360008301526138688161382c565b9050919050565b7f4552433732313a207472616e7366657220746f206e6f6e20455243373231526560008201527f63656976657220696d706c656d656e7465720000000000000000000000000000602082015250565b60006138cb6032836125ab565b91506138d68261386f565b604082019050919050565b600060208201905081810360008301526138fa816138be565b9050919050565b7f4552433732314d657461646174613a2055524920717565727920666f72206e6f60008201527f6e6578697374656e7420746f6b656e0000000000000000000000000000000000602082015250565b600061395d602f836125ab565b915061396882613901565b604082019050919050565b6000602082019050818103600083015261398c81613950565b9050919050565b7f4552433732313a206d696e7420746f20746865207a65726f2061646472657373600082015250565b60006139c96020836125ab565b91506139d482613993565b602082019050919050565b600060208201905081810360008301526139f8816139bc565b9050919050565b7f4552433732313a20746f6b656e20616c7265616479206d696e74656400000000600082015250565b6000613a35601c836125ab565b9150613a40826139ff565b602082019050919050565b60006020820190508181036000830152613a6481613a28565b9050919050565b7f45524337323155524953746f726167653a2055524920736574206f66206e6f6e60008201527f6578697374656e7420746f6b656e000000000000000000000000000000000000602082015250565b6000613ac7602e836125ab565b9150613ad282613a6b565b604082019050919050565b60006020820190508181036000830152613af681613aba565b9050919050565b600081519050919050565b600082825260208201905092915050565b6000613b2482613afd565b613b2e8185613b08565b9350613b3e8185602086016125bc565b613b47816125ef565b840191505092915050565b6000608082019050613b6760008301876126f0565b613b7460208301866126f0565b613b81604083018561285f565b8181036060830152613b938184613b19565b905095945050505050565b600081519050613bad81612511565b92915050565b600060208284031215613bc957613bc86124db565b5b6000613bd784828501613b9e565b91505092915050565b7f4e487b7100000000000000000000000000000000000000000000000000000000600052601260045260246000fd5b6000613c1a8261265b565b9150613c258361265b565b925082613c3557613c34613be0565b5b828204905092915050565b6000613c4b8261265b565b9150613c568361265b565b925082613c6657613c65613be0565b5b82820690509291505056fea2646970667358221220ea81bbf4a1ab41efa091ba3f2fc30835dc9c90ab062cf22ccf35f3bb5109220164736f6c634300080a0033",
  "linkReferences": {},
  "deployedLinkReferences": {}
}